{
  "contractName": "SlotGame",
  "abi": [
    {
      "inputs": [],
      "stateMutability": "nonpayable",
      "type": "constructor"
    },
    {
      "anonymous": false,
      "inputs": [
        {
          "indexed": false,
          "internalType": "string",
          "name": "createdUserName",
          "type": "string"
        },
        {
          "indexed": false,
          "internalType": "uint256",
          "name": "createdUserCreatedTime",
          "type": "uint256"
        }
      ],
      "name": "createdUser",
      "type": "event"
    },
    {
      "inputs": [
        {
          "internalType": "string",
          "name": "_name",
          "type": "string"
        }
      ],
      "name": "createUser",
      "outputs": [],
      "stateMutability": "nonpayable",
      "type": "function"
    },
    {
      "inputs": [],
      "name": "getMyUserInfo",
      "outputs": [
        {
          "components": [
            {
              "internalType": "string",
              "name": "name",
              "type": "string"
            },
            {
              "internalType": "uint256",
              "name": "createdTime",
              "type": "uint256"
            },
            {
              "internalType": "uint256",
              "name": "winsCount",
              "type": "uint256"
            },
            {
              "internalType": "uint256",
              "name": "loseCount",
              "type": "uint256"
            }
          ],
          "internalType": "struct SlotGame.User",
          "name": "",
          "type": "tuple"
        }
      ],
      "stateMutability": "view",
      "type": "function",
      "constant": true
    }
  ],
  "bytecode": "0x608060405234801561001057600080fd5b5061097a806100206000396000f3fe608060405234801561001057600080fd5b50600436106100365760003560e01c8063507ffba51461003b5780635ad3da7914610057575b600080fd5b610055600480360381019061005091906105ab565b610075565b005b61005f6102fc565b60405161006c919061080a565b60405180910390f35b604051806020016040528060008152508051906020012081805190602001201415801561010c575060405180602001604052806000815250805190602001206000803373ffffffffffffffffffffffffffffffffffffffff1673ffffffffffffffffffffffffffffffffffffffff16815260200190815260200160002060000160405161010291906107c3565b6040518091039020145b61011557600080fd5b806000803373ffffffffffffffffffffffffffffffffffffffff1673ffffffffffffffffffffffffffffffffffffffff168152602001908152602001600020600001908051906020019061016a92919061048a565b50426000803373ffffffffffffffffffffffffffffffffffffffff1673ffffffffffffffffffffffffffffffffffffffff1681526020019081526020016000206001018190555060008060003373ffffffffffffffffffffffffffffffffffffffff1673ffffffffffffffffffffffffffffffffffffffff1681526020019081526020016000206002018190555060008060003373ffffffffffffffffffffffffffffffffffffffff1673ffffffffffffffffffffffffffffffffffffffff168152602001908152602001600020600301819055507ff0287a7b2de01fdc5001df376a1a4de7851c345069e52728905eb13d6154a5076000803373ffffffffffffffffffffffffffffffffffffffff1673ffffffffffffffffffffffffffffffffffffffff1681526020019081526020016000206000016000803373ffffffffffffffffffffffffffffffffffffffff1673ffffffffffffffffffffffffffffffffffffffff168152602001908152602001600020600101546040516102f19291906107da565b60405180910390a150565b61030461050a565b60405180602001604052806000815250805190602001206000803373ffffffffffffffffffffffffffffffffffffffff1673ffffffffffffffffffffffffffffffffffffffff16815260200190815260200160002060000160405161036991906107c3565b6040518091039020141561037c57600080fd5b6000803373ffffffffffffffffffffffffffffffffffffffff1673ffffffffffffffffffffffffffffffffffffffff168152602001908152602001600020604051806080016040529081600082018054600181600116156101000203166002900480601f01602080910402602001604051908101604052809291908181526020018280546001816001161561010002031660029004801561045e5780601f106104335761010080835404028352916020019161045e565b820191906000526020600020905b81548152906001019060200180831161044157829003601f168201915b505050505081526020016001820154815260200160028201548152602001600382015481525050905090565b828054600181600116156101000203166002900490600052602060002090601f016020900481019282601f106104cb57805160ff19168380011785556104f9565b828001600101855582156104f9579182015b828111156104f85782518255916020019190600101906104dd565b5b5090506105069190610532565b5090565b6040518060800160405280606081526020016000815260200160008152602001600081525090565b61055491905b80821115610550576000816000905550600101610538565b5090565b90565b600082601f83011261056857600080fd5b813561057b61057682610859565b61082c565b9150808252602083016020830185838301111561059757600080fd5b6105a28382846108f1565b50505092915050565b6000602082840312156105bd57600080fd5b600082013567ffffffffffffffff8111156105d757600080fd5b6105e384828501610557565b91505092915050565b600081546001811660008114610609576001811461062e57610672565b607f600283041661061a81876108ba565b955060ff1983168652808601935050610672565b6002820461063c81876108ba565b955061064785610885565b60005b828110156106695781548189015260018201915060208101905061064a565b82880195505050505b505092915050565b6000610685826108af565b61068f81856108c5565b935061069f818560208601610900565b6106a881610933565b840191505092915050565b6000815460018116600081146106d057600181146106f65761073a565b607f60028304166106e181876108d6565b955060ff19831686526020860193505061073a565b6002820461070481876108d6565b955061070f8561089a565b60005b8281101561073157815481890152600182019150602081019050610712565b80880195505050505b505092915050565b6000608083016000830151848203600086015261075f828261067a565b915050602083015161077460208601826107a5565b50604083015161078760408601826107a5565b50606083015161079a60608601826107a5565b508091505092915050565b6107ae816108e7565b82525050565b6107bd816108e7565b82525050565b60006107cf82846105ec565b915081905092915050565b600060408201905081810360008301526107f481856106b3565b905061080360208301846107b4565b9392505050565b600060208201905081810360008301526108248184610742565b905092915050565b6000604051905081810181811067ffffffffffffffff8211171561084f57600080fd5b8060405250919050565b600067ffffffffffffffff82111561087057600080fd5b601f19601f8301169050602081019050919050565b60008190508160005260206000209050919050565b60008190508160005260206000209050919050565b600081519050919050565b600081905092915050565b600082825260208201905092915050565b600082825260208201905092915050565b6000819050919050565b82818337600083830152505050565b60005b8381101561091e578082015181840152602081019050610903565b8381111561092d576000848401525b50505050565b6000601f19601f830116905091905056fea26469706673582212207b19475d9c50707343e1aa4c74f0b47c794c7b4e537c25f9f430302af58d408664736f6c63430006060033",
  "immutableReferences": {},
  "source": "pragma solidity >=0.6.6 <0.7.0;\npragma experimental ABIEncoderV2;\n\ncontract SlotGame {\n    struct User {\n        string name;\n        uint256 createdTime;\n        uint256 winsCount;\n        uint256 loseCount;\n    }\n    mapping(address => User) addressToUser;\n\n    constructor() public {}\n\n    event createdUser(string createdUserName, uint256 createdUserCreatedTime);\n\n    function createUser(string memory _name) public {\n        // 引数なしまたは、作成済みでない\n        require(\n            keccak256(bytes(_name)) !=\n                keccak256(bytes(\"\")) &&\n                keccak256(bytes(addressToUser[msg.sender].name)) ==\n                keccak256(bytes(\"\"))\n        );\n        addressToUser[msg.sender].name = _name;\n        addressToUser[msg.sender].createdTime = now;\n        addressToUser[msg.sender].winsCount = 0;\n        addressToUser[msg.sender].loseCount = 0;\n        emit createdUser(\n            addressToUser[msg.sender].name,\n            addressToUser[msg.sender].createdTime\n        );\n    }\n\n    function getMyUserInfo() public view returns (User memory) {\n        // 作成済みであること\n        require(\n            keccak256(bytes(addressToUser[msg.sender].name)) !=\n                keccak256(bytes(\"\"))\n        );\n        return addressToUser[msg.sender];\n    }\n\n    // function withdraw(uint withdraw_amount) public {\n\n    //     require(withdraw_amount <= 10 ether);\n\n    //     msg.sender.transfer(withdraw_amount);\n    // }\n\n    // event Received(address, uint);\n    // receive() external payable {\n    //     emit Received(msg.sender, msg.value);\n    // }\n}\n",
  "sourcePath": "/Users/sikeda/Projects/JavaScript/SlotGame/truffle-pj/contracts/SlotGame.sol",
  "compiler": {
    "name": "solc",
    "version": "0.6.6+commit.6c089d02.Emscripten.clang"
  },
  "schemaVersion": "3.1.0",
  "updatedAt": "2020-04-29T07:41:10.404Z",
  "networkType": "ethereum",
  "devdoc": {
    "methods": {}
  },
  "userdoc": {
    "methods": {}
  }
}